:020000040800F2
:1000000038810220C102000839CC0008A19C0008F8
:100010006DC90008451E0008F53C010800000000FD
:100020000000000000000000000000001F1C01088C
:10003000873A000800000000771A0008C933010859
:10004000DB020008DB020008DB020008991201084D
:10005000DB020008DB020008DB020008DB0200080C
:10006000DB020008DB020008DB020008DB020008FC
:10007000DB020008DB020008DB020008DB020008EC
:10008000DB020008DB020008DB020008DB020008DC
:10009000E11F000891200008DB020008DB020008D5
:1000A000DB020008DB020008DB020008DB020008BC
:1000B000DB020008F5370108DB020008DB0200085C
:1000C000DB020008DB020008DB020008DB0200089C
:1000D000DB0200084D3B0108DB020008DB020008E0
:1000E000DB020008DB020008DB020008DB0200087C
:1000F000DB020008DB020008DB020008DB0200086C
:10010000DB020008DB020008C9380108DB02000836
:10011000DB020008DB020008DB020008DB0200084B
:10012000DB020008DB020008DB020008DB0200083B
:10013000DB020008DB020008DB020008DB0200082B
:10014000DB020008DB020008DB020008DB0200081B
:10015000DB020008DB020008DB020008DB0200080B
:10016000DB020008DB020008DB020008DB020008FB
:10017000DB020008DB020008DB020008DB020008EB
:10018000DB020008DB020008DB020008DB020008DB
:10019000DB020008DB020008DB020008DB020008CB
:1001A0000000000000000000DB02000800F002F880
:1001B00000F076F80AA090E8000C82448344AAF18B
:1001C0000107DA4501D100F06BF8AFF2090EBAE889
:1001D0000F0013F0010F18BFFB1A43F0010318477B
:1001E000B43B0C00D43B0C0010F8013B0A4413F064
:1001F000030408BF10F8014B1D1108BF10F8015B84
:10020000641E05D010F8016B641E01F8016BF9D172
:10021000002D15D010F8014B03F00C030C2BA1EBB3
:1002200004040ABF10F8013BA4EB8314A4EB0324DD
:1002300005F1010314F8016B5B1E01F8016BF9D5A0
:10024000914238BF10F8013BD1D3704700230024FE
:1002500000250026103A28BF78C1FBD8520728BFD6
:1002600030C148BF0B607047662925F04982642978
:1002700000F0D280782900F03681632900F055869D
:10028000002070471FB525F036FA00F0ABFE0400E1
:100290000020002124F0C6FCE0601FBD10B510BD99
:1002A00000F0A0FF1146FFF7EDFF24F04BF900F03E
:1002B000BEFF03B4FFF7F2FF03BC00F0FFFF000036
:1002C0000948804709480047FEE7FEE7FEE7FEE7EA
:1002D000FEE7FEE7FEE7FEE7FEE7FEE70448054926
:1002E000054A064B70470000E9330108AD010008DC
:1002F0003867022038810220386B0220386B0220D8
:1003000072B6704762B67047EFF3108072B67047EE
:1003100080F31088704730BF704720BF7047B0FA35
:1003200080F0704790FAA0F0B0FA80F0704790FA31
:10033000A0F070470FB4044910B503AA029800F06A
:1003400001FE10BC5DF814FB600000200FB41CB56A
:10035000084B06AA7B4469460090059800F0C3FD4F
:1003600004460020694600F0D1FD20461CBC5DF823
:1003700014FB0000B50B000070B5044685690068E9
:10038000C10601D5302600E02026C00707D070BD89
:10039000D4E9012130469047206A401C20626D1E3E
:1003A000F6D570BD70B5044685690078C00707D1E1
:1003B00070BDD4E9012120209047206A401C2062B2
:1003C0006D1EF6D570BD70B50C460546012A05D0E8
:1003D0002878800600D5EA69002302E0012305E0C1
:1003E0005B1C934202D2E05C0028F9D1A869E618B0
:1003F000C01AA861286A184428622846FFF7BCFF83
:1004000004E0D5E9012114F8010B9047B442F8D378
:100410002846FFF7C7FF70BD2DE9F04106460024CE
:1004200010687529314616A510D0AFF3008000285A
:1004300002DA404213A507E031688A0701D512A508
:1004400002E0490704D511A5012401E0AFF30080C3
:1004500000210A2206F1240709E0B0FBF2FCB0FB00
:10046000F2F302FB1C00303078541846491C002877
:10047000F3D123462A463046BDE8F04100F0C7BA22
:10048000000000002D0000002B00000020000000F4
:10049000F0B40D460188090502D5214C7C4402E0E8
:1004A0001F4C7C440E34002100F1240608E002F0C9
:1004B0000F071209E75D42EA03721B097754491CD2
:1004C00052EA0307F3D102780023120704D5702DF6
:1004D00006D009B1022311342246F0BC00F097BACD
:1004E00001231034F8E770B504460D462146106824
:1004F000AFF30080024629462046BDE87040002345
:10050000C6E7D21D22F00703D3E90023C0E7036842
:10051000126843F0200303600823C3610023B7E798
:10052000D02E0C002DE9F05F894604464FF0000AFA
:10053000DFF874B1FB44C0F820A02046E16888478A
:10054000002874D0252806D0D4E901219047206ADC
:10055000401C2062F1E700265F462046E16888479C
:100560002028054607DB312D05D2781910F8200C1C
:1005700008B10643F1E7B00701D526F00406C4F838
:100580001CA00027C4F818A02A2D09D0284623F063
:1005900057FD38B304EB8708303DC8F8185019E010
:1005A00059F8041B204604EB87029161E1688847F3
:1005B000012F054618D1E069002820DA26F0200630
:1005C0001DE0D8F8180000EB800005EB4000303843
:1005D000C8F818002046E1688847054623F030FD3A
:1005E0000028EED1012F0AD02E2D08D12046E16837
:1005F00088477F1C0546022F46F02006C4DBA06911
:10060000002803DA404246F00106A061F00701D05D
:1006100026F010066C2D0BD0682D09D04C2D39D04A
:100620006A2D35D0742D35D07A2D33D016E038E0D0
:10063000E1682F4620468847B842054609D16C2F0D
:1006400026D04FF48060E16806432046884705467F
:1006500004E06C2F1AD04FF4807006430DB3A5F15F
:100660004100192802D8203546F400664A4629463A
:10067000204626604E46FFF7F7FD80B101280BD0DB
:10068000F61D26F0070000F1080956E74020E4E7D0
:100690008020D8E70020D6E706F104094DE7284678
:1006A00052E7206ABDE8F09F602E0C00401ECAB2DF
:1006B00010F8011F8A4202D00029F9D100207047AA
:1006C00040EA0103024630B59B0710D14FF00134D8
:1006D00000E008C208C91D1B9D4315EAC41FF8D0DD
:1006E00013F0FF0102F8011B0DD01B0AF8E711F807
:1006F000013B002B02F8013B05D011F8013B002B18
:1007000002F8013BF3D130BD10B5431C02E010F8F4
:10071000011B71B18107FAD14FF0013202C88C1A66
:100720008C4314EAC211F9D0C01A0A0603D0C01EC5
:1007300010BDC01A10BD0A0401D0801E10BD0902F0
:10074000FCD0401E10BD40EA010370B59B072ED1BE
:100750004FF00136042A2AD308C810C99D1B9D43B7
:10076000121F15EAC61517D0D8B2E1B2401A50EAE6
:10077000056110D198B2A1B2401A50EA05410AD1E0
:1007800023F07F4024F07F41401A50EA052102D136
:10079000180EA0EB146070BDA342DBD018BA21BACA
:1007A000884201D9012070BD4FF0FF3070BD0AB9F9
:1007B000002070BD10F8013B11F8014B63B1A3425A
:1007C0000AD1521E08D010F8013B11F8014B1BB1A1
:1007D000A34201D1521EEDD1181B70BD421E12F86A
:1007E000013F002BFBD111F8013B002B02F8013B2C
:1007F000F9D17047032A40F2308010F0030C00F06A
:10080000158011F8013BBCF1020F624498BF11F84A
:1008100001CB00F8013B38BF11F8013BA2F1040203
:1008200098BF00F801CB38BF00F8013B11F003037B
:1008300000F06780083AC0F0088051F8043B083A9D
:1008400051F804CBA0E80810F5E7121D5CBF51F881
:10085000043B40F8043BAFF30080D20724BF11F8FB
:10086000013B11F801CB48BF11F8012B24BF00F860
:10087000013B00F801CB48BF00F8012B7047431A39
:1008800028BF9A427FF6B6AF032A1044114440F2C3
:10089000268010F0030F1EBF11F8013D521E00F814
:1008A000013D10F0030F7FF4F6AF11F0030300F0E9
:1008B0006E83083AC0F00B8051F8043D083A51F8B5
:1008C00004CD40F8043D40F804CDFFF7F3BF121DFE
:1008D0005CBF51F8043D40F8043DAFF30080D207FF
:1008E00024BF11F8013D11F801CD48BF11F8012CCA
:1008F00024BF00F8013D00F801CD48BF00F8012CED
:10090000704710B5203AC0F00B80B1E81850203A7B
:10091000A0E81850B1E81850A0E81850BFF4F5AF9F
:100920005FEA027C24BFB1E81850A0E8185044BF29
:1009300018C918C0BDE810405FEA827C24BF51F896
:10094000043B40F8043B08BF7047D20728BF31F88A
:10095000023B48BF11F8012B28BF20F8023B48BFDB
:1009600000F8012B704702F0FF0343EA032242EA3A
:10097000024200F002B84FF000020429C0F01280D9
:1009800010F0030C00F01B80CCF1040CBCF1020F42
:1009900018BF00F8012BA8BF20F8022BA1EB0C0117
:1009A00000F00DB85FEAC17C24BF00F8012B00F80D
:1009B000012B48BF00F8012B70474FF0000200B533
:1009C000134694469646203922BFA0E80C50A0E872
:1009D0000C50B1F12001BFF4F7AF090728BFA0E820
:1009E0000C5048BF0CC05DF804EB890028BF40F8EC
:1009F000042B08BF704748BF20F8022B11F0804F2E
:100A000018BF00F8012B70477047704770472DE9F9
:100A1000F0470D4699469246044600F124080168C5
:100A2000880604D5E06921F01001216000E0012072
:100A3000A84201DD471B00E00027A1697A1902EBFB
:100A40000900081AA0612078C00602D42046FFF7EA
:100A500093FC002608E0D4E901211AF8060090472B
:100A6000206A401C761C20624E45F4DB2078C006CC
:100A70000AD52046FFF780FC06E0D4E901213020AA
:100A80009047206A401C2062381EA7F10107F4DC61
:100A900007E0D4E9012118F805009047206A401CBE
:100AA0002062281EA5F10105F3DC2046FFF77AFC41
:100AB0002078000602D50220BDE8F0870120FBE780
:100AC00070472DE9FF4F0C461E464FF0FF378BB0A5
:100AD000D2E90001DDF860800A908A46C1F30A5528
:100AE00005B93D46002108464FF00000BAF1000F5D
:100AF00000F4400005DA00EB80004FF4400101EA09
:100B000050004FEA9059B9F1010F00DDB9460A983B
:100B100050EA4A000ED044F61050A5F2FF35454386
:100B20002F14B8F1000F1ED07542291E1EDDC9F129
:100B300000021CE0B8F1010F4FF0000001D030219D
:100B400003E0F24305E02154401CB042FBDB304699
:100B50000022002121540B99C1F80880C1E900202E
:100B60000FB0BDE8F08FBD1B6D1CDEE74A4600DA12
:100B7000694206A800F0C0FA06AB93E8070003AB91
:100B800083E8070050460A9900F09FFB8DE80700B4
:100B9000A0F500501F3800900398002D09DD42F2A7
:100BA0001F014A46084403A90390684600F0FEFD71
:100BB00008E0A0F500504A461F3803A90390684694
:100BC00000F008FE8DE807000004000C03D04FF091
:100BD000FF30410800E01046B8F1000F03D00022BA
:100BE000009215461EE0751E05D400F0FFF9303264
:100BF00062556D1EF9D5B3460122084302D000228A
:100C00007F1C04E02078302801D100227F1E002ABA
:100C1000099786D01DE0112D07DA00F0E7F9303290
:100C200062556D1C50EA0102F5D1084302D00098CC
:100C3000C8B10EE00021681E05E0235C625C6354CD
:100C40002254401E491C8142F7DBAB46A81B401EC4
:100C50000990002004F80B000B98099AC0F808804E
:100C6000C0E9002B7CE711264FF0000859E72DE979
:100C7000F04F88460446D21D22F0070191B0D1E919
:100C80000001CDE90A011EF09BFE02460B98C00F41
:100C900001D02D2007E02068810701D52B2002E03C
:100CA000202101EAC000032A099001D0072A05DBB0
:100CB00003464146204600F0DFF90BE1207880062C
:100CC00001D5E06900E00620B8F1650F814606D045
:100CD000B8F1660F18D0B8F1670F70D131E000207D
:100CE000B9F1110F009001DB112301E009F10103BB
:100CF0000AAA01A90CA8FFF7E4FEDDE90C700026A2
:100D000009F10105834647E001204B4600904FF072
:100D100000470AAA01A90CA8FFF7D3FEDDE90DB030
:100D20000C995D46002610B909F101000D18B9EBC8
:100D3000050003D4C0F1FF3609F10105A5EB090058
:100D40002BE0B9F1010F01DA4FF001090020B9F1F0
:100D5000110F0090484601DD112300E003460AAA66
:100D600001A90CA8FFF7ADFEDDE90C704D46002689
:100D70008346207800070AD4AB4500DA5D4601A817
:100D8000012D04DD411911F8011C302907D04F4510
:100D900002DA17F1040F04DA012082460FE06D1E1B
:100DA000EEE7002F02DCED1B3E4403E0781CA84276
:100DB00000DD7D1CB81B00F1010A4FF000472078D0
:100DC000000703D4AA4501DB4FF0FF3A0021B7F139
:100DD000004F0DF143088DF8431024D002202B233F
:100DE000002F01DA7F422D230A21021EA0F101000B
:100DF00000DC5FB197FBF1FC97FBF1F201FB1C7C7F
:100E000017460CF1300C08F801CDEEE7A8F101000F
:100E100003702188090501D5452100E06521A0F175
:100E2000010800F8011C09980FA9A1EB0807FF1D94
:100E300000B10120411901EBEA70A1693844081A98
:100E4000401EA0612078C00602D42046FFF794FA25
:100E5000099828B1D4E901219047206A401C2062FA
:100E60002078C00622D52046FFF786FA1EE0002E25
:100E700004DBB34502DD01A8805D00E03020D4E949
:100E800001219047206A401C2062761CAAF10100D3
:100E90005FEA000A0AD100F0A5F8C0680168405C6A
:100EA000D4E901219047206A401C2062281EA5F148
:100EB0000105DCDC07E0D4E9012118F8010B9047BB
:100EC000206A401C2062381EA7F10107F3DC20468F
:100ED000FFF768FA032011B043E6000001694A1CDD
:100EE00002610878704700B58FB0CDE9013100216B
:100EF000059105497944CDE9031011466846FFF78D
:100F000011FB0FB000BD0000E5FFFFFF0A6802F80B
:100F1000010B0A60704710B5436913B1AFF300804D
:100F200001E0FFF750FA012010BD127800F1240112
:100F30000A7000224A700122EDE711684FF0FF327B
:100F4000E9E70000074B70B50D467B44FFF7CBFF88
:100F50000446284600F03EF910B14FF0FF3070BD56
:100F6000204670BDCF350200431A28BF9A427FF653
:100F7000C8AC104410F0030F11441EBF11F8013D1E
:100F8000521E00F8013D10F0030F7FF4F6AF103A47
:100F9000C0F00A8010B531E91850103A20E9185015
:100FA000BFF4F9AFBDE81040530724BF31E9081082
:100FB00020E9081044BF51F8043D40F8043D12F008
:100FC000030F08BF7047D20728BF31F8023D48BF62
:100FD00011F8012C28BF20F8023D48BF00F8012C71
:100FE0007047000000487047F866022030B5B0F145
:100FF0000A024FEA900E71F100034EEA817EB0EBD7
:101000000E0061EB91014FEA101E4EEA017E10EBDB
:101010000E0041EB11114FEA102E4EEA016E10EB5B
:101020000E0041EB11214FEA104E4EEA014E10EB3B
:101030000E0041EB1141401841F100014FEAD00090
:1010400040EA41704FEAD10110EB80054FEA81047C
:1010500044EA907444EB01046D1944EB0404521B00
:10106000A3414FF0000348BF0A3200D530BD401CF9
:1010700041F1000130BD00002DE9F0411F4604465A
:1010800003260168072A01F4006004DB08B116A5F5
:1010900005E016A503E008B115A500E015A521F0AF
:1010A00010002060A069C01EA0610FB1401EA061A9
:1010B0002046FFF761F94FB1D4E901213846904746
:1010C000206A401C2062C01C206206E0206AFAE709
:1010D000D4E9012115F8010B9047761EF8D220467D
:1010E000FFF760F9BDE8F0814E414E006E616E0081
:1010F000494E4600696E66002DE9F0478146164666
:101100008AB0334878440DC88DE80D0030487844E3
:10111000801C03AC0DC884E80D0041F69B300844E8
:10112000372190FBF1F290FBF1F5A5F1800501FB71
:1011300012041B3C02D56442012000E00020DFF8CD
:1011400090A080460027FA44AAF1BE0A0DE0E0070D
:1011500009D03246684607EB47010AEB810100F0EF
:1011600039FB8DE8070064107F1C002CEFD1184F6D
:101170007F44AC3F18E0E80714D007EB04100DF1F2
:10118000180A90E80E008AE80E00C068F04201D10B
:1011900098190890324606A903A800F01BFB03AB80
:1011A00083E807006D10641C002DE4D132466946C7
:1011B000B8F1000F03A802D000F0F8FA01E000F047
:1011C00009FBC9E90001C9F808200AB0BDE8F087A9
:1011D00020230C00007B00F080007047004870471F
:1011E000D86602207546FFF7F9FFAE46050069464E
:1011F000534620F00700854618B020B5FFF76EF87B
:10120000BDE820404FF000064FF000074FF0000807
:101210004FF0000B21F00701AC46ACE8C009ACE888
:10122000C009ACE8C009ACE8C0098D467047044667
:10123000AFF300802046FFF73CF800004FF0013C80
:1012400050F8042B51F8043B9A4221D1A2EB0C0335
:10125000934313EACC1317D150F8042B51F8043BF5
:101260009A4215D1A2EB0C03934313EACC130BD192
:1012700050F8042B51F8043B9A4209D1A2EB0C031D
:10128000934313EACC13DBD04FF00000704700BF4C
:10129000D01A01BAB1FA81F101F0180122FA01F075
:1012A000CB40C1F12001DBB2C0B2C01A2CFA01F36D
:1012B000D11A914311EAC311E6D1704701491820B0
:1012C000ABBEFEE72600020070475FEA400C08BF95
:1012D00091F0000F4FEA8C234FEAC12243EA5151AB
:1012E0004FEA1C5018BF00F5F0404FEA300018BF1D
:1012F00041F000415FEA6C5C00F02980BCF1FF3FE7
:1013000008BF40F080407047130C06BF12044FF036
:10131000100C4FF0000C130E04BF12020CF1080C5D
:10132000130F04BF12010CF1040C930F04BF9200C1
:101330000CF1020CD30F04BF52000CF1010C11464A
:101340004FF00002A0F11F00A0EB0C00704711F05D
:10135000004F08BF704731F000413FF4D5AF0B0C90
:1013600006BF09044FF0100C4FF0000C0B0E04BF29
:1013700009020CF1080C0B0F04BF09010CF1040C5D
:101380008B0F04BF89000CF1020CCB0F04BF490086
:101390000CF1010CCCF12003A0EB0C0022FA03F3BA
:1013A00002FA0CF241EA030100F10100704720F05B
:1013B0007F4C80EA030023F07F47ACEB070303F583
:1013C0007C5300F0004003F1FF032DE980494FEA10
:1013D000154B09B44FEA144325EA0B4E24EA03489F
:1013E0000FF2042606EB132749083E785FEA320223
:1013F00003FB0667C7F5000707FB06F64FEA5437FD
:101400004FEAD64606F1020607FB066CCCF1005CFB
:101410004FEA1C472CEA074C07FB06F40CFB06F5C9
:1014200004EB15464FEA961634BF00204FF00040FB
:101430004FEAD13706FB07FC4FEA1C4C0CFB0BF7BD
:10144000D21B03FB0CF761EB07010CFB0EF7B0EBB3
:10145000074072EB17420CFB08F734BFA2EB0742C0
:10146000B2EB074261EB17414FEA0C444FEA910798
:1014700006FB07FC4FEA1C4C0CFB0BF7B0EBC7401C
:1014800072EB573203FB0CF734BFA2EBC742B2EB4F
:10149000C74261EB57310CFB0EF7B0EBC70072EBA4
:1014A00057720CFB08F734BFA2EBC702B2EBC702BE
:1014B00061EB5771039F4FEA816141EA921104EB9E
:1014C000CC044FEAD1374FEA826206FB07FC42EABE
:1014D00090124FEA80604FEA1C4C0CFB0BF7D21BBA
:1014E00003FB0CF761EB07010CFB0EF7B0EB0740B9
:1014F00072EB17420CFB08F734BFA2EB0742B2EBCA
:10150000074261EB17414FEA8C554FEA910704EB14
:101510009C2406FB07FC4FEA1C4C0CFB0BF7B0EBC2
:10152000C74072EB573203FB0CF734BFA2EBC74244
:10153000B2EBC74261EB57310CFB0EF7B0EBC700C3
:1015400072EB57720CFB08F734BFA2EBC702B2EB89
:10155000C70261EB577115EB4C254FEA816141EAF7
:1015600092114FEA82624FEAD13742EA901206FBAB
:1015700007FC44F100044FEA80604FEA1C4C0CFB6E
:101580000BF7D21B03FB0CF761EB07010CFB0EF70B
:10159000B0EB074072EB17420CFB08F734BFA2EB2D
:1015A0000742B2EB074261EB174115EB1C154FEAFE
:1015B000813141EA92414FEA823242EA90424FEA57
:1015C00080304FEA0C7644F1000448EA03434EEAC7
:1015D0000B484FF0000EB2EB080C71EB030724BF71
:1015E000624639464EEB0E0E4FF0000B001852418A
:1015F00049414BEB0B0BB2EB080C71EB03077BF192
:10160000000B24BF624639464EEB0E0E4FF0000B26
:101610000018524149414BEB0B0BB2EB080C71EB3C
:1016200003077BF1000B24BF624639464EEB0E0EDA
:1016300051EA020718BF46F0010616EB0E7655F187
:10164000000254F1000103D5BDE88901BDE800881E
:10165000BDE88901BDE80048B619524141EB0101DE
:10166000A3F10103704780807F7E7D7C7B7A79784F
:10167000777676757473727171706F6E6E6D6C6C57
:101680006B6A6A69686867666665646463636261F9
:101690006160605F5F5E5E5D5D5C5C5B5B5A5A597A
:1016A00059585857575656555555545453535252E6
:1016B0005251515050504F4F4F4E4E4D4D4D4C4C3E
:1016C0004C4B4B4B4A4A4A49494948484847474787
:1016D00047464646454545444444444343434342C4
:1016E000424242414141002B26D4770021D01CB513
:1016F0004FEA370703B44FF010004FF010014FF0DE
:1017000000000FBCBDE810400BF1010BBBF1010F55
:1017100008BF5FEA170722BF12F1010211F10101B0
:101720004FF0004143F1000300F0004043EA0000A5
:101730007047F9D35708DAE746EA064613F1400F37
:101740004FEA16461FDD13F1200FDFBF16430A468E
:10175000002120335B42C8D0C3F1200746EA064689
:1017600002FA07F74FEA164646EA0706C3F12007D2
:1017700022FA03F201FA07F721FA03F14FF000030E
:1017800042EA0702B1E746EA020646EA06464FEA9F
:10179000164646EA0106BCBF46EA0646360C4FF03E
:1017A00000034FF000024FF000019EE72DE9C04812
:1017B000934630B491E8380007C831EA400C48BF7E
:1017C00034EA430C03D5FFF7F2FDFFF78CFFF0BCC2
:1017D000BDE800882DE9C048934630B491E8380050
:1017E00007C810F0804F08BF13F0804F03D100F0FE
:1017F00005F8FFF778FFF0BCBDE8008820F07F47D0
:1018000080EA030023F07F4C07EB0C03A3F57C5325
:1018100000F00040A3F1FE0392F0000F00F0B3804F
:1018200095F0000F00F077802DE901494FEA114053
:101830004FEA144621EA004800FB06FC24EA06476A
:1018400008FB06F607FB08F800FB07F718EB06484D
:101850004CEB164C4FEA124B18EB07484FEA154673
:101860004CEB174022EA0B4E0BFB06FC25EA064721
:101870000EFB06F607FB0EFE0BFB07F71EEB064EF4
:101880004CEB164C4FF000061EEB074E4CEB174B83
:1018900018EB0B0840F1000018EB0E0B58EB00089A
:1018A00040F100008F1A4FF000013CBFC943661B96
:1018B00014BFB5EB040C00213CBFC943F61B4FEA33
:1018C00017444EEA8E0E27EA04454FEA1C4704FBF4
:1018D00007622CEA074C05FB07F70CFB05F604FB37
:1018E0000CFC16EB074642EB174216EB0C4642EB9C
:1018F0001C421BEB060658EB0202414146EA9E06DB
:1019000001D5BDE80189B619524141EB0101A3F1AE
:101910000103BDE801894FEA14454FEA114724EA63
:10192000054621EA074C05FB07F406FB07F70CFB0D
:1019300006F105FB0CFC11EB074144EB17444FEAA1
:10194000124711EB0C4144EB1C4422EA074C05FB07
:1019500007F206FB07F70CFB06F605FB0CFC16EB83
:10196000074642EB174216EB0C4642EB1C456A1841
:1019700054F1000148BF7047B619524141EB0101D3
:10198000A3F10103704795F0000F37D04FEA1142E1
:101990004FEA144721EA024624EA074C02FB07F10A
:1019A00006FB07F70CFB06F402FB0CFC14EB0744E8
:1019B00041EB17414FEA154714EB0C4441EB1C4136
:1019C00025EA074C02FB07F506FB07F70CFB06F6BA
:1019D00002FB0CFC16EB074645EB174516EB0C46D5
:1019E00045EB1C42121951F1000148BF7047B6196E
:1019F000524141EB0101A3F1010370474FEA144545
:101A00004FEA114724EA054621EA074C05FB07F196
:101A100006FB07F70CFB06F24FF0000605FB0CFC7B
:101A200012EB074241EB174112EB0C4251EB1C4108
:101A300048BF7047921841EB0101A3F101037047C1
:101A400022484FF6FF710170002080F3098820487A
:101A5000016881F308881F484FF08051016062B629
:101A6000FEE71C484FF080510160704719484FF065
:101A700080510160704772B6EFF3098050B11EF0DB
:101A8000100F08BF20ED108A203880E8F00F1249AF
:101A90000968086000B5114880475DF804EB1048FC
:101AA00010490A7802700C480F490A6802601068F1
:101AB00090E8F00F20301EF0100F08BFB0EC108A35
:101AC00080F309884EF0040E62B6704722ED00E004
:101AD0003401002004ED00E02C010020F1DA0008C0
:101AE000BE000020BF000020300100201CB50446CD
:101AF00012F07AFF03460020009001900C4850F845
:101B000024200C4800EBC40150F83400496804F06C
:101B1000ABF8094908600949086012F05AFF02B0A1
:101B20000023BDE8104014224FF4096112F04ABDB1
:101B3000005B02081C870208740100205401002089
:101B4000002800DC404270470EB5002502AC00239F
:101B5000CDE900541A460A2118460CF04BF8F6E776
:101B60002DE9F0418AB000244FF033080326CDF868
:101B70000880CDE906462E490594CDE9006109ADFE
:101B80004FF4007708952A48CDE903742346294A83
:101B900029A1C4380BF052FCCDE906462B49089523
:101BA000059404208DE803012848CDE9037400233F
:101BB000274A28A1C4380BF041FCCDE906462A4942
:101BC0000895059405208DE803012748CDE90374A5
:101BD0000023264A26A1C4380BF030FC0726CDE9A5
:101BE000064627490895059406208DE803012448F8
:101BF000CDE903740023234A23A1C4380BF01EFC53
:101C0000CDE90646B800CC210895CDE90210224A5C
:101C100005943C20CDE900021F48049400231F4A8C
:101C20001FA1C4380BF00AFC0AB0BDE8F081000027
:101C300078370020B51C0008417070205461736B28
:101C4000204D737043414E300000000000490020D9
:101C5000E91C0008417070205461736B2050505390
:101C60005449434B000000003C400020491B000841
:101C7000417070205461736B20434F4D0000000091
:101C8000C4510020A91D0008417070205461736B7D
:101C90002055736572494600885A0020B11C00081F
:101CA000417070205461736B20475549000000005B
:101CB0000AF0D0BD0EB5002502AC00231A46194625
:101CC000084800940BF0FAF9BDF8080008B900F0D4
:101CD00021FB0022CDE900543223114610460BF0BF
:101CE00089FFEAE7B07A00200EB500270D4D02AE5D
:101CF00001244FF4AF7800231A4619460A4800968B
:101D00000BF0DCF901F03EFB012001F059FB6C7097
:101D10000022CDE900764346114610460BF06AFFDB
:101D2000AC70E8E7247B0020D87A00200EB502A82A
:101D30000BF02EFBFFF714FF6B4600220FA1134898
:101D40000BF080F911486B46002211A128300BF0EE
:101D500079F90E486B46002210A150300BF072F951
:101D6000002502AC22F064FA0022CDE900540523DC
:101D7000114610460BF03EFFF4E700004170705032
:101D800072696E746653656D70000000887A002079
:101D900053454D5F53594E434800000053454D5F36
:101DA0005050535449434B000EB5214D4FF4167912
:101DB000204F4FF4E168204C002608F051F9607E76
:101DC00040B9A0792978884202D048B108F004FAD5
:101DD000A07928702089484505D30120A07105E02D
:101DE00008F007FAF4E7A671401C2081B87A0007D2
:101DF00013D5E089404502D2401CE0810EE0404509
:101E00000CD1BFF34F8F0D4908680D4A00F4E06014
:101E100010430860BFF34F8FFEE7E68102A8CDE9CB
:101E2000006000230122194618460BF0E3FEC4E7C8
:101E300000000020007B0020247B00200CED00E04F
:101E40000400FA05FEE700002DE9F04301218BB004
:101E500008460EF065FA012148060EF079FA4FF0B7
:101E600002088DF8248000244FF4C0508DF82640DD
:101E70000327594E08908DF8257001258DF82750BD
:101E800008A9304602F0B4FF09220B21304602F0C7
:101E9000EBFF09220C21304602F0E6FF8DF81640D8
:101EA0008DF818408DF812408DF817408DF81950B4
:101EB0008DF813400620DFF824918DF81A408DF834
:101EC0001470ADF810008DF81B408DF8155004A962
:101ED000484600F00FFBE8028DF80A40ADF800001C
:101EE0004FF478468DF80B408DF80C50ADF8046037
:101EF000ADF80240ADF80640ADF808408DF80D5041
:101F0000684600F093F928038DF80A50ADF80000F8
:101F10008DF80B408DF80C50ADF80460ADF8024020
:101F2000ADF80640ADF808508DF80D50684600F049
:101F30007DF9A8038DF80A80ADF800008DF80B40FC
:101F40008DF80C50ADF80460ADF80240ADF80640D5
:101F5000ADF808508DF80D50684600F067F94FF461
:101F600090408DF80A70ADF800008DF80B408DF8A8
:101F70000C50ADF80460ADF80240ADF80640ADF885
:101F800008508DF80D50684600F050F901220221EA
:101F9000484600F0A7FA14208DF81C008DF81D406B
:101FA0008DF81E408DF81F5007A80AF047FE012249
:101FB0001021484600F096FA15208DF81C008DF887
:101FC0001D508DF81E408DF81F5007A80AF036FEF0
:101FD0000BB00020BDE8F083000002400064004028
:101FE000F0B587B0002601960AF042FF2249019819
:101FF000224D884200D12E602868C00305D52048B4
:10200000016841F02001016032E01D486A4600216C
:102010000C3800F0E3FA01980199C0F3072001F0B1
:102020000F010844C40017490198884208D1286864
:1020300005AA40F480302860002113480BF0DCF83A
:1020400000206B46114F4FF4C87C9DF80A200DE02C
:10205000191800EB040EC97A07F80E102968491CFC
:10206000296089B2614500D32E60401C8242EFD8BE
:102070000AF00EFF07B0F0BD300110010C00002087
:102080000C64004011231001B07A0020C07B0020B6
:10209000F0B585B00AF0ECFE244C2068000C05D0A9
:1020A0002348016841F0200101603AE020486A4677
:1020B0000121103800F092FA01980199C0F307202D
:1020C00001F00F010844C20001982568C0F3031015
:1020D0000023C5F3CC06814209D1864200D040B925
:1020E000019820F0FF0045EA0020206001E001B9DE
:1020F000236000206D460F4E4FF416779DF80AC0FE
:102100000DE0291800EB020EC97A06F80E102168BE
:10211000491C216089B2B94200D32360401C844528
:10212000EFD80AF0B5FE05B0F0BD000010000020A9
:1021300010640040507D00202DE9F04186B000245D
:10214000019104218DF808108DF809408DF80A20BE
:10215000694603E0035D0D19641CEB729442F9D3E8
:10216000144D154E304600F0C7F848B10120641CEC
:1021700022F06CF9AC42F5D3022006B0BDE8F08144
:102180006946304601F01EF800244FF6FF75B04650
:1021900007462E1104E0641CAC4201D30120ECE799
:1021A0003946404601F060F808B9B442F3D3002044
:1021B000E3E70000FFFF030000640040F0B585B0D6
:1021C000002401908DF80A4004208DF808000220B8
:1021D0008DF809004FF6FF75134F08E00120641CCD
:1021E00022F034F9AC4202D3022005B0F0BD3846EB
:1021F00000F082F80028F1D16946384600F0E2FF8D
:102200000646002440F6FF7504E0641CAC4201D38E
:102210000120EAE73146384601F026F808B9AC4219
:10222000F3D30020E1E7000000640040F0B5827ABB
:102230002F4D012191402A6842F001022A602C4E64
:102240001C3632688A433260294A047B294B0C329F
:10225000A4B914688C4314604488C78844EA0744CE
:10226000877A03EBC707C7F840460488878844EAA3
:102270000744877A03EBC707C7F84446047B012C61
:1022800012D114680C431460847A026803EBC4040E
:102290004FEA3242C4F84026847A426803EBC40312
:1022A0004FEA3242C3F84426114AC37A121D002B6A
:1022B000136806D00B4313600D4A0389143213B11F
:1022C00004E08B43F7E713688B4313600389012B0A
:1022D00002D113680B431360407B012802D13068A0
:1022E00008433060286820F001002860F0BD00003D
:1022F00000660040006000408168490107D48168A1
:10230000090104D48068C00001D401207047002076
:10231000704700002DE9F0416D488AB00124417AF0
:102320008DF80A10817A8DF80B10017A0025C1F31F
:10233000C0028DF80020C1F300118DF8011090F853
:102340002CC00CF001018DF8021090F8547007F0C9
:1023500001018DF8031090F8A26006F001018DF8DC
:10236000041090F8A53003F001018DF805108DF8E8
:1023700006408DF8075090F8BA1001F001028DF870
:10238000082090F8DA20C1F340018DF8161002F011
:102390000108C2F340018DF809808DF81710C17B48
:1023A0008DF80C10017B01F00F018DF80D10CCF3AE
:1023B00040018DF80E1090F82A1009098DF80F10C1
:1023C000C7F340018DF8101090F8521009098DF8EC
:1023D0001110C6F340018DF8121090F8A11001F011
:1023E0000F018DF81310C3F340018DF8141090F80D
:1023F000A41001F00F018DF81510C17A01F00F0142
:102400008DF81810B0F8111049BAADF81A10C17C47
:102410008DF81C10017D8DF81D10417D8DF81E106A
:10242000827D8DF81F20C07DDFF8A8808DF8200008
:10243000182903D83C2A01D83C2805D90020C8F81F
:1024400000500AB0BDE8F081222269462248FEF71A
:10245000D1F92148214E2430214F858044743088A1
:102460001D4C052811D994F820001E21B0FBF1F273
:1024700001FB12000F2808D00021384611F07DFA28
:102480000121384611F079FA1EE094F82020E17F0E
:10249000A07F00230EF0BEFE608B6421B0FBF1F242
:1024A00001FB1200627F217F01230EF0A5FE0021B7
:1024B000384611F062FA0121384611F05EFA308890
:1024C000052801D8401C30800120C8F80050B8E72A
:1024D000C07B00200C000020007B002002000020B8
:1024E00000040040002A426901D00A4300E08A4308
:1024F0004261704710B50368002223F002030360B5
:10250000036843F0010303604FF6FF7300E0521CC1
:102510004468E40701D19A42F9D14268D2073ED01B
:102520008A79012A02683CD022F080020260CA79CE
:10253000012A026838D022F0400202600A7A012A99
:10254000026834D022F0200202604A7A012A02682E
:1025500030D022F0100202608A7A012A02682CD060
:1025600022F008020260CA7A012A026828D022F00A
:10257000040202608A78CC78920742EA04620C79FD
:1025800042EA04424C79098842EA0452491E0A434D
:10259000C261016821F001010160002114E0002006
:1025A00010BD42F08002C1E742F04002C5E742F0B0
:1025B0002002C9E742F01002CDE742F00802D1E75D
:1025C00042F00402D5E7491C4268D20701D0994283
:1025D000F9D14068C007E2D1012010BD10B500EB71
:1025E0000113D3F8B04114F004041472D3F8B041CD
:1025F00033D0E4085460D3F8B04104F002045472BC
:10260000D3F8B44104F00F049472D3F8B441240A0F
:10261000D474D3F8B841D472D3F8B841240A1473EF
:10262000D3F8B841240C5473D3F8B841240E9473F2
:10263000D3F8BC41D473D3F8BC41240A1474D3F842
:10264000BC41240C5474D3F8BC311B0E937439B1C3
:10265000016941F02001016110BD640D1460CAE7F9
:10266000C16841F02001C16010BD00007CB5044686
:102670000020234D234E0090019041B1F07E0728A9
:1026800001D2401CF0762846FFF798FD1AE04FF47F
:102690000461606812F0B4F901F06FF98DF8000080
:1026A000B07C012811D01848417A8DF80110817A48
:1026B0008DF80210C07A8DF803000822294668467A
:1026C000FFF73AFD00F074FD7CBD40F64101606803
:1026D00012F096F901F051F98DF8010040F642012F
:1026E000606812F08DF901F048F98DF8020040F6AB
:1026F0004301606812F084F901F03FF9DBE7000064
:1027000000011003247B0020507D00202DE9FC47B0
:102710004FF00009DFF8B480DFF8B4A00446CDF82C
:102720000090CDF8049051B14046FFF747FD9AF86C
:102730001B1007293ED2491C8AF81B103AE04FF4BF
:102740000461606812F05CF901F017F9074640F681
:102750004101606812F054F901F00FF9064640F6A5
:102760004201606812F04CF901F007F9054640F6A5
:102770004301606812F044F901F0FFF822218DF85E
:1027800000108DF8019046EA05118DF802108DF8C1
:1027900003708DF804009AF8120001280ED00D483D
:1027A000407D00F00F008DF8050008224146684684
:1027B000FFF7C2FC00F0FCFCBDE8FC8740F64401DA
:1027C000606812F01DF901F0D8F8ECE70002100380
:1027D000247B0020507D00202DE9F04186B00024AC
:1027E000884606460494059440684FF4046112F04C
:1027F00007F901F0C2F8C7B240F64101706812F063
:10280000FFF801F0BAF8C0B20FB30A2F1FD0390594
:1028100001F5801141EA004533480543B8F1000F46
:102820001CD0002404F50361706812F0E9F800215F
:1028300001F018FC641C0C2CF4DB2C49C87E072822
:1028400001D2401CC8762846FFF7B8FC37E03905AE
:1028500001F5801141EA00452548DEE70094019426
:10286000029403940024E84604F50361706812F0B2
:10287000C7F801F073FA08F80400641C0C2CF3DBB1
:10288000082229466846FFF757FC0822691C02A85F
:10289000FFF752FCC7B10A2F16D00822A91C04A8C2
:1028A000FFF74AFC0822E91C04A8FFF745FC280CA6
:1028B0008DF817000822291D04A8FFF73DFC00F041
:1028C00077FC06B0BDE8F0810822A91C0948FFF793
:1028D00033FC08480822E91C0830FFF72DFC0548A6
:1028E0000822291D1030E8E740090006247B00205B
:1028F00040090003A87D00202DE9F04391B04FF07E
:102900000008354D0746CDF80080CDF8048061B150
:1029100032A0FDF70FFD3649C87E072801D2401CC2
:10292000C8762846FFF74AFC51E01C2109A8FEF7AB
:1029300044F81C2102A8FEF740F800240DF12409F8
:1029400002AE04F50361786812F05AF801F006FA55
:1029500049F82400002801DAC0F1000046F82400FC
:1029600003DA40F0004046F8240021F0E9FD46F883
:102970002400641C072CE4DBDDE90201CDE9000141
:10298000294608226846FFF7D7FBDDE90401CDE9B7
:102990000001691C08226846FFF7CEFBDDE906014D
:1029A000CDE90001A91C08226846FFF7C5FB08987D
:1029B0000090E91C08226846FFF7BEFBCDF80080B6
:1029C000291D08226846CDF80480FFF7B5FB00F00A
:1029D000EFFB11B0BDE8F0834004100343414E5FAC
:1029E000524551203AD1D3B3D9C9E8D6C32F6E008E
:1029F000247B00201CB50022134C0092019269B187
:102A000012A0FDF797FC1648C27E072A01D2521C7D
:102A1000C2762046FFF7D2FB044611E040684FF42F
:102A2000046111F0EDFF00F0A8FF8DF8000008220E
:102A300021466846FFF780FB04460AA0FDF77AFCB2
:102A4000204600F0B5FB1CBD0040A00343414E5F93
:102A5000524551203ABCE0B2E2B9DCC0ED2F6E0025
:102A6000247B002043414E5F53454E443ABCE0B2C4
:102A7000E2B9DCC0ED2F6E001CB5254A234CD2E92B
:102A80000032CDE9003239B122A0FDF753FC2046D7
:102A9000FFF794FB044634E040684FF4046111F002
:102AA000AFFF00F06AFFC0B22322452106281FD2E3
:102AB000DFE800F01E03070B111721208DF800003E
:102AC00016E08DF80020142002E08DF8002041204F
:102AD0008DF801000CE08DF800208DF80110162013
:102AE00004E08DF800208DF8011061208DF80200BF
:102AF000082221466846FFF71FFB04460AA0FDF79F
:102B000019FC204600F054FB1CBD0000000310031C
:102B1000B089020843414E5F524551203AD4B4D3A4
:102B2000C5CFC8BCB62F6E0043414E5F53454E44DF
:102B30003AD4B4D3C5CFC8BCB62F6E002DE9F0414E
:102B400088B08846044620216846FDF736FF4FF4DA
:102B50000461606811F054FF00F00FFFC5B240F649
:102B60004101606811F04CFF00F007FFC0B201277F
:102B70004DB30A2D27D0290501F5801141EA004601
:102B8000614840F6420106436068B8F1000F21D069
:102B900011F036FF002100F015FF002505F5036157
:102BA000606811F02DFF002101F05CFA6D1C092D09
:102BB000F4DB5649C87E072801D2401CC87630464F
:102BC000FFF7FCFA91E0290501F5801141EA004682
:102BD0004F48D6E711F014FF00F0CFFE8DF8040047
:102BE00040F63201606811F00BFF01F0B7F88DF884
:102BF00005004FF40361606811F002FF01F0AEF8C8
:102C00008DF8060040F63701606811F0F9FE01F01A
:102C1000A5F8010C8DF80810010A8DF809108DF83F
:102C20000A0040F63801606811F0EAFE01F096F8FB
:102C3000010C8DF80B10010A8DF80C108DF80D00A9
:102C400040F63101606811F0DBFE01F087F88DF885
:102C50000F0040F63501606811F0D2FE01F07EF8F9
:102C60008DF8100006208DF8110040F636016068DE
:102C700011F0C6FE01F072F88DF8120000208DF8F8
:102C800013708DF8140040F63301606811F0B8FE3F
:102C900001F064F88DF8150040F63401606811F019
:102CA000AFFE01F05BF88DF81600300C8DF81700C0
:102CB00005B30A2D1ED006A8082231460446FFF7A8
:102CC0003BFA0822711C2046FFF736FA0822B11C95
:102CD0006846FFF731FA0822F11C02A8FFF72CFA28
:102CE0000822311D04A8FFF727FA00F061FA08B0A6
:102CF000BDE8F081082231460648FFF71DFA054875
:102D00000822711C0830DFE740090006247B002000
:102D100040090003987D00207CB500241B4D064629
:102D20000094019439B11AA0FDF704FB2846FFF77F
:102D300045FA044625E04FF40461706811F060FE26
:102D400000F01BFE8DF8000040F64101706811F0A4
:102D500057FE00F012FE10F0FF0203D0022A04D04A
:102D6000012003E08DF8014002E004208DF801000D
:102D7000082229466846FFF7DFF9044609A0FDF757
:102D8000D9FA204600F014FA7CBD000000101003B0
:102D900043414E5F524551203AD0C5BAC5C9E8D625
:102DA000C32F6E0043414E5F53454E443AD0C5BADF
:102DB000C5C9E8D6C32F6E002DE9FF5F064655480A
:102DC000029000200090019039B153A0FDF7B2FAB3
:102DD0000298FFF7F3F9044696E04FF40361706838
:102DE00011F00EFE00F0BAFF6425B0FBF5F10A24E5
:102DF000B1FBF4F34FF47A77B0FBF7F204FB131155
:102E000041EA02110391B0FBF5F105FB1100C0EBA3
:102E100000108000B0FBF5F0B0FBF4F1B0FBF4F271
:102E200004FB120040EA011B40F63101706811F00A
:102E3000E7FD00F093FF42F21071B0FBF1F2B0FB3E
:102E4000F7F1B1FBF4F304FB1313B0FBF5F143EA24
:102E5000021AB0FBF5F205FB1200C0EB0010800077
:102E6000B0FBF5F0B0FBF4F2B1FBF4FCB0FBF4F313
:102E700004FB1C1104FB130042EA01194FEA00187D
:102E800040F63201706811F0BBFD00F067FFB0FB47
:102E9000F5F1B1FBF4F304FB1313B0FBF4F1B1FB58
:102EA000F4F504FB1511B0FBF7F2B0FBF4F504FBED
:102EB000150040EA011503998DF8001043EA021449
:102EC0008DF801B0082268460299FFF735F91149DB
:102ED0008DF800A08DF80190491C8DF80280082221
:102EE0006846FFF729F98DF800400A498DF801502E
:102EF00000208DF80200891C08226846FFF71CF9A3
:102F000004460AA0FDF716FA204600F051F9BDE884
:102F1000FF9F00002012100343414E5F5245512095
:102F20003AB6A8CEBBC9E8D6C32F6E0043414E5F68
:102F300053454E443AB6A8CEBBC9E8D6C32F6E005F
:102F40002DE9FC4105460020234F0090019039B146
:102F500022A0FDF7EFF93846FFF730F9054635E0D6
:102F60004FF40461686811F04BFD00F006FD8DF828
:102F700000004FF40361686811F042FD00F0EEFEBE
:102F8000010A8DF801108DF8020000246E4604F647
:102F90003101686811F034FD00F0E0FE3119641C65
:102FA000A4B2C870052CF2D3082239466846FFF750
:102FB000C3F805460EA0FDF7BDF9002411A0315D50
:102FC000FDF7B8F9641CA4B2082CF7D3284600F02A
:102FD000EFF8BDE8FC8100000011100343414E5F93
:102FE000524551203AC4A3C4E2CAE4B3F62F6E009E
:102FF00043414E5F53454E443AC4A3C4E2CAE4B3CE
:10300000F62F6E00256420007CB500241A4D06467C
:103010000094019439B119A0FDF78CF92846FFF707
:10302000CDF804461FE04FF40461706811F0E8FC2D
:1030300000F0A3FC10F0FF028DF8002017D08DF8EF
:10304000004040F64101706811F0DAFC00F095FC98
:103050008DF80100082229466846FFF76DF80446FE
:103060000BA0FDF767F9204600F0A2F87CBD082010
:103070008DF80000E5E70000000E100343414E5FAD
:10308000524551203ACAB1C7F8C9E8D6C32F6E00DD
:1030900043414E5F53454E443ACAB1C7F8C9E8D6DA
:1030A000C32F6E002DE9FF41164D064631B116A023
:1030B000FDF740F92846FFF781F81FE000246F462E
:1030C00004F50361706811F09BFC00F047FE80B2CC
:1030D000010A01EB002027F81400641CE4B2082C5C
:1030E000EED30FA0FDF726F9082229466846FFF720
:1030F00023F80822691C02A8FFF71EF800F058F810
:10310000BDE8FF81103A100343414E5F5245512004
:103110003AD7B4CCACBFD8D6C6CCA80A00000000C1
:1031200043414E5F53454E443AC4A3C4E2CAE4B39C
:10313000F62F6E001CB5002000900190074806494C
:10314000807C012801D18DF8000008226846FEF736
:10315000F3FF00F02DF81CBD00291003247B002094
:10316000044910B50843FFF729F8BDE8104000F006
:103170001FB8000000191003064A10B500210448CA
:103180001160FFF71BF8BDE8104000F011B8000017
:10319000F02A10031000002010B5044A11B11046A7
:1031A000FFF70CF8BDE8104000F002B8001510035E
:1031B000034918B1087C032801D2401C08747047E9
:1031C000247B002030B50246002093685B0108D4C0
:1031D0009068000101D5012003E09068C00037D558
:1031E000022002EB0012D2F8803103F00103C2F892
:1031F00080310B7A73B3D2F880414D681C434B7A0F
:1032000043EAC5031C43C2F880418B7A03F00F03E5
:103210008B72D2F8843123F00F03C2F88431D2F8D4
:1032200084318C7A2343C2F88431CB7ACC6843EA68
:103230000423C2F88831CB7B096943EA0121C2F833
:103240008C11D2F8801141F00101C2F8801130BD1B
:10325000042030BDD2F880314C7A23430C8843EAF5
:103260004453C2F88031D0E7002221B1012905D0B2
:10327000022906D112E08268114801E082681148F3
:1032800002401149501A8A4214D00ADCA2B16FF0F0
:10329000806010180FD002280CD10FE082680B4814
:1032A000EEE7B0F5007F09D00949401803D0B0F52A
:1032B000003F03D000207047022070470120704774
:1032C00003000004000300080001000800000310D0
:1032D0000001FFF77CB5214C0546216831F8220F2B
:1032E0004A8D104408804888CA8D1044488028467A
:1032F00003F018FB2168498CADF8001046182846E9
:1033000005F09AFE3044401EADF8040003F008FCBE
:103310002168898CADF802100844401EADF8060003
:10332000684612F009FA04E0284601F081F912F02B
:10333000A1F90028F8D10A2D04D0BDF804002168B5
:10334000401C4884206830F8221F428D891A018071
:103350004188C28D891A41807CBD0000542900201B
:103360000148406870470000001000E00349002059
:1033700008600349C8768876704700001000002076
:10338000247B002010B50C4CA088962802D2401C4B
:10339000A08005E008482438817A41F00801817254
:1033A0000EF0A6FC2078012805D1BDE810400121CF
:1033B000024810F0E2BA10BD247B0020004001401A
:1033C0001CB513498988814220D9114C243C2078AE
:1033D00000281BD169460DF0F5FD01A900200DF074
:1033E000BDFD9DF8070000F5FA6060839DF80500BB
:1033F00020779DF8060060779DF80000A0779DF883
:103400000100E0779DF8020084F820001CBD000058
:10341000247B00202DE9FC410C46050038D003F048
:103420005DFC112C14D0132C28460ED002F004F9A8
:10343000009000F010FB0646684602F067F920464F
:103440001BF068FC074600241CE000F0AAFA1BE011
:10345000284600F081F917E02146284600F0FEFAE0
:10346000019070B100781BF055FC00F0FF0801A836
:1034700002F04CF9B84504D12146284600F0A2FAE2
:1034800002E0641CB442E7DBBDE8FC4104F048BE46
:10349000BDE8FC81F8B50C46050018D0002C16D00C
:1034A00003F01CFC284602F0C7F80090C66B684683
:1034B00002F02CF92046FDF727F9421C2146304640
:1034C00002F048F9284611F0C9FC04F029FEF8BDC5
:1034D0002DE9FF4145680446284602F0ADF8019009
:1034E000D0F8886001A802F011F90EB1012700E0C0
:1034F00000272146284610F0B5FC002856D0206849
:10350000112844D006DC0B2863D00E2878D00F2871
:103510002BD14FE0212805D026281AD0B0F5107FF6
:1035200023D139E0E068416800291EDD00680D28DC
:103530001BD1304608F053F8002806DB304608F06F
:103540004EF80146284600F03DFA284600F078F88B
:103550006FE0E068012809D00A2802D00B286BD15F
:1035600011E00A21284611F0EFFC65E0304608F032
:1035700036F8002860DB304608F031F8014628466E
:1035800000F020FA55E0284600F05AF854E0FFB960
:10359000E068007A98BB4FE0E06848B1007A08B173
:1035A000012100E00221284611F0CEFCBDE8FF8198
:1035B0000321F8E72E46284602F03EF80290D0F8A4
:1035C0008400056802A802F0A1F80DB13046A847B2
:1035D00032E0284602F030F80090C06B02F0FAF8B2
:1035E0000098D0F8880011F00BF90098D0F89400FA
:1035F00001F05CFF684602F089F81DE000E010E091
:10360000E0684168002917DD016809290DD00A2901
:1036100012D01B2910D0202903D02846FFF7FAFE2C
:10362000C4E7284600F0A4F806E011F017FAB0420B
:1036300002D1284611F0CEFD204611F0A9F8B5E7D9
:1036400038B5040016D003F049FB204601F0F4FF22
:103650000090D0F8880040B111F0D2F80099002015
:10366000C1F88800204611F0F9FB684602F04EF8D8
:1036700004F056FD38BDF0B585B0B0F90850468A63
:1036800084690296CDE903540027CDE90017B0F90B
:103690000C10B0F91050B0F90E40B0F90A001944FE
:1036A00010442B46224600F003F805B0F0BD0000A0
:1036B0002DE9FF5F1D46DDE90F8691468A46834668
:1036C0000E9F129C03F00AFB21496C34CDE90214D1
:1036D000CDE900784FF0FF334A465146584610F086
:1036E0009FFF04002DD001F0A7FF10220090119938
:1036F00010F0D6FD00983822164980F88C604C30C6
:10370000FDF7FFF8134E0098361F3168C0F884109B
:10371000002180F89010C586204600F07BF96846AD
:1037200001F0F4FF02F053F80546204601F084FF53
:103730000090C563684601F0E9FF306841682046A3
:10374000884704F0EDFC04B02046BDE8F09F00007F
:10375000D1340008E829002010B5044600F00DF926
:10376000010000D0411E2046BDE8104000F02AB9FB
:103770002DE9F14F9EB01E9800287DD003F0AEFADF
:103780001E9801F059FF0B901E9811F065FA0390F6
:103790000B98B0F9367090F890101891C16B0A919F
:1037A00090F88C90B0F93410159100F054F98246DD
:1037B0000B9804ACB0F88E101491B0F982101391EC
:1037C000C16C1291D0E90012CDE90C12D0F894B07E
:1037D000002100BF00EB8102126D44F82120491C3A
:1037E0000329F7D3002107AD00EB8102D26D45F824
:1037F0002120491C0329F7D300210EAE00EB8102E2
:10380000126F46F82120491C0329F7D30BA801F0B9
:103810007DFF1E9811F0B2F901F00EFF1190D0F863
:10382000008011A801F072FF4FEA284042420FFACF
:1038300088F041420CA803F01DFF5FEA897003D5B0
:10384000BDF83200C01B01E0BDF83600ADF8320013
:103850001E9811F093F9014603980222CDE9000762
:103860000292BDF93230BDF93020002007F03BFE56
:1038700080465FEAC97000E07CE007D040461899B6
:1038800008F0FBF80121404608F01CF8002708E08A
:1038900039460A9801F0FFFF0146404607F0DEFC7A
:1038A0007F1C5745F4D30027394654F8272040465B
:1038B00008F032F87F1C032FF6D30024214655F878
:1038C0002420404608F072F9641C032CF6D300242F
:1038D000214656F82420404608F0AFF8641C032C1B
:1038E000F6D35FEA0B001FD001F0A6FE169030F869
:1038F000025B00240646012711E000BF06EBD4005E
:1039000004F00701007807FA01F1084201D0012212
:1039100000E000222146404608F030F8641CAC422A
:10392000ECDB16A801F0F2FE4046149908F059F8B5
:103930004046129908F009F84046139908F021F919
:10394000404611F047FC40461E9908F061F8404699
:10395000159908F0AFF801211E9811F0F5FA1E989C
:1039600001F06AFE0B90C0F888800BA801F0CEFE33
:1039700004F0D6FB1FB0BDE8F08F38B505004FF05E
:1039800000040CD003F0AAF9284601F055FE00907F
:10399000B0F93440684601F0B9FE04F0C1FB20469E
:1039A00038BD10B50446FFF7E8FF411C2046BDE8CE
:1039B000104000F007B8000001490860704700009F
:1039C000E829002038B50C46050022D003F086F91E
:1039D000284601F031FE009000F03DF800B1401E95
:1039E000844200DD04460098B0F93410A1420BD0A7
:1039F0008486684601F08AFE284611F02FFA0421D9
:103A0000284611F0A1FA02E0684601F07FFE04F0BA
:103A100087FB38BDF8B5044601F00EFE0146009064
:103A2000B0F9380010B9C86C03F0C8F80099CA6A38
:103A3000B1F98030126800EB43001618084611F007
:103A400073FE0546684601F061FE3246294620466F
:103A500011F077FCF8BDC06B01F011BF38B50D4611
:103A6000002401F0E9FD0090C06B294601F013FF2E
:103A70000546684601F04AFE1DB1284601F0DCFD0E
:103A80000446204638BD70472DE9FC470E465FEAE4
:103A900000097FD003F022F9484601F0CDFD0090E7
:103AA00090F85470D0F85880456BC46C684601F0AB
:103AB0002DFEB8F1000F04D03146484642469047EB
:103AC00061E0122E18D006DC082E43D0102E3CD018
:103AD000112E06D112E0132E21D01D2E43D01E2E02
:103AE0003DD0202E4FDB17B1484613F0CEFAB1B2CD
:103AF000484618F0B9FA60B3611C27E04DB3284678
:103B000001F09AFD05462146019004F0F7F94419A9
:103B1000204604F0A1F901462346012210E0C5B178
:103B2000284601F089FD05462146019004F0E6F99A
:103B30004419204604F090F9014623464FF0FF3225
:103B4000484612F055FF01A81BE0611E484600F0F0
:103B5000A1FA18E0BCB1611E484600F09BFA484645
:103B600013F093FA0FE0484601F066FD0090012F34
:103B700012D0012180F854102146484600F08AFAFC
:103B8000684601F0C3FD484611F068F900E001E025
:103B900004F0C6FABDE8FC87002180F85410EFE776
:103BA000FEB544680546204611F03AFF0646294610
:103BB000204610F057F9002837D028680F2830D059
:103BC00004DC0B2832D00E284DD13AE0A0F58070ED
:103BD000133804D0A0F580702D3844D110E0204671
:103BE00011F076FA2046002119F0E1FC204601F0A0
:103BF00023FD0190C06F002111F051FA01A81DE0D2
:103C0000E86860B1017A29B10168204600F0CAF87D
:103C1000012100E00221204611F096F923E0032162
:103C2000F9E70121204619F0C2FCFEBD204601F053
:103C300003FD0090343001F063FC684601F066FD3E
:103C400011E086B1E868416800290CDD01680929A6
:103C500009D00A2907D00D2905D01B2903D02046F9
:103C6000FFF712FFFEBD284610F092FDFEBDF0B535
:103C700087B004460DF1080CD4E90567B0F9085087
:103C8000408A8CE8E1000020CDE90010B4F90C0076
:103C9000B4F91060C118B4F90A00B4F90E50104418
:103CA00033462A4600F008F8050002D0618A00F089
:103CB000C4F907B02846F0BD2DE9FF5F1F46DDE9D6
:103CC0001254DDE90E6A90468946834603F006F8F1
:103CD0000DF1040C4AF480501E49583400968CE8CB
:103CE00013003B4642464946584610F099FC0400F2
:103CF0002AD001F0A1FC10220090119910F0D0FA06
:103D000000981C2214496030FCF7FBFD009A01204A
:103D100082F85500681C00D0012082F88000002D38
:103D200000DC08252DB215870020508750636846B7
:103D30006D1C01F0EBFC2946204617F0AAFF18B9CC
:103D4000204610F05DFD002404F0EAF904B020469E
:103D5000BDE8F09FA13B0008202A002038B50500EF
:103D60004FF000040BD002F0B9FF284601F064FCCC
:103D70000090846C684601F0C9FC04F0D1F920463B
:103D800038BD70B50D46044602F0A8FF34B129468F
:103D9000204600F07FF9204611F060F8BDE8704041
:103DA00004F0BEB92DE9F04186B00C46060055D0AE
:103DB00002F094FF304601F03FFC0090406B98B356
:103DC00001F03AFC03900098806E03F025FE8046D7
:103DD000304610F041FF0746039802F0C5FE054645
:103DE000009890F8601001F00301012916D0022913
:103DF0000DD0416EC06A00680844241A641E0398FE
:103E000005F0FEF80146002C0FDA002115E0781BC2
:103E1000401C00EBD070A4EB6004F0E7406E791B0F
:103E2000081A241A641CEAE713E0AC4205DC0246D7
:103E30002146039805F084F80146304600F02AF93F
:103E400003A801F063FC404603F0E6FD304611F0A4
:103E500005F8684601F05AFC04F062F906B0BDE8C6
:103E6000F08100002DE9F8431D46DDE908491646BA
:103E70000F46804602F032FF5FEA080040D001F0B2
:103E8000DBFB2149009081652049C1650021C0E923
:103E90001271E0E90F650121047280F81A90017631
:103EA00090F84470684601F031FC87B1284617F05D
:103EB0004AF90546304617F046F90CB1401C6D1C16
:103EC000854200DD28460146404600F07DF8404628
:103ED0001AF0E4FF404601F0AFFB009000F0C5F897
:103EE0000B490978884205D10098C16C4046491CAD
:103EF00000F0D0F8684601F009FC404610F0AEFF33
:103F000004F00EF9BDE8F883656101089DEE010833
:103F1000482900200149886070470000202A0020BD
:103F200038B50C4605000FD002F0D8FE284601F047
:103F300083FB009018B18466284610F08FFF684616
:103F400001F0E4FB04F0ECF838BD0000F8B51D46C4
:103F500016460C46074602F0C1FE6FB3384601F024
:103F60006BFB1749009081651649C1650021C0E9C6
:103F70001241B0F938100C1E06DC2A46002401E07C
:103F80001209641C002AFBD1082C00DD0824C0E9BA
:103F90000F65012280F854200D46684601F0B6FBFB
:103FA000AC4203D02146384600F00EF838461AF0ED
:103FB000E1FF384610F052FF04F0B2F8F8BD0000FF
:103FC0004D62010875EF01087CB50C46060033D040
:103FD00002F084FE304601F02FFB0090B0F938105B
:103FE000458FA14223D012DD406B80B101F024FB4C
:103FF000019005F005F8A04206DD2146019803F086
:104000007DFF019A0021115401A801F07FFB684651
:1040100001F07CFB611B3046491C17F03AFE30462C
:1040200001F00AFB00900487304610F017FF684645
:1040300001F06CFB04F074F87CBD38B50C4605004B
:104040000FD002F04BFE284601F0F6FA009018B1AE
:104050000466284610F002FF684601F057FB04F0A2
:104060005FF838BD00221AF0BFBC38B50446406B7B
:10407000002568B101F0E0FA00900546E16C03F01C
:104080003DFF284403F0E8FE0546684601F03EFB8C
:10409000284638BD1CB50C4601F0CEFA0090406BA6
:1040A000F0B101F0C9FA019004F0AAFF009991F86B
:1040B000542002B10122002C00DA0024844200DDE9
:1040C0000446B1F93800801AA04200DA0446C86CF0
:1040D000A04200D0CC640020086501A801F016FBC6
:1040E000684601F013FB1CBD01221AF07DBC0000E4
:1040F0000149086070470000143C014030B51A4A7D
:104100008379016853B313688B431360111D0B68E7
:104110000468A3430B60017911440B6804682343CE
:104120000B60114B083319680468A14319601C1D0A
:1041300021680568A94321604179102905D01144FF
:104140000A68006802430A6030BD196802681143BA
:104150001960216800680143216030BD0079104476
:1041600002688A43026030BD003C0140014908609A
:10417000704700000C3C024005490028086802D046
:1041800040F4806001E020F4806008607047000027
:10419000003C024070B50646002529B1012927D010
:1041A000022928D04FF4407500F092F809281ED15A
:1041B000124C206820F44070206020682843206062
:1041C000206820F0F8002060206846F002010843D3
:1041D0002060206840F48030206000F079F8216889
:1041E00021F002012160216821F0F801216070BDF9
:1041F0004FF48075D8E74FF40075D5E7103C0240C6
:104200000D4909200A68D20301D5012070470A68C8
:10421000D20601D5062070470A68D20501D50220D2
:1042200070470A6812F0E00F01D007207047096854
:104230008907FBD5082070470C3C024010B500F000
:1042400035F8BDE81040F320FFF790BF0248016841
:1042500041F0004101607047103C024070B50D46CE
:10426000064600F035F8092813D10A4C206820F4DE
:1042700040702060206840F400702060206840F0AA
:1042800001002060356000F023F8216821F0010171
:10429000216070BD103C024010B5002303E010C83F
:1042A00041F823405B1C9342F9D310BD05480068D8
:1042B000002805DA034804490C380160034901600D
:1042C00070470000103C024023016745AB89EFCDE9
:1042D00008B509208DF80000FFF792FF8DF8000067
:1042E0009DF800000128F7D09DF8000008BD0000EF
:1042F0002DE9F041092690460F460446B0F1006FC3
:1043000031D3A0072FD1FFF799FF0020FFF734FF2B
:104310001648254604EB880884420ED31AE0286824
:10432000401C09D0284605F07FF90221FFF732FF33
:104330000646092801D00FE02D1D4545EFD3092E73
:1043400008D009E020463968FFF788FF092803D123
:10435000241D3F1D4445F5D30120FFF70DFFBDE8A7
:10436000F041FFF773BFBDE8F08100000000FF1FC0
:104370002DE9F041A0B001211D200BF0D1FF01215A
:1043800008460BF0D9FF01258DF87C5000244FF42E
:1043900000508DF87E400326DFF858811E908DF87E
:1043A0007D608DF87F501EA9404600F021FDE80297
:1043B0008DF87C401E908DF87D608DF87F501EA991
:1043C0004D4800F015FD02278DF87C704CF6030077
:1043D0008DF87E401E908DF87D608DF87F501EA96F
:1043E000404600F005FD8DF87C70B0208DF87E40D1
:1043F0001E908DF87D608DF87F501EA9404600F01C
:10440000F7FC8DF87C708DF87E408DF87D604FF460
:10441000F0603A4E1E908DF87F501EA9304600F095
:10442000E7FC0C220021404600F01EFD0C22012179
:10443000404600F019FD0C220421404600F014FD16
:104440000C220521404600F00FFD0C2207214046BA
:1044500000F00AFD0C220B21404600F005FD0C2265
:104460000E21404600F000FD0C220F21404600F0D6
:10447000FBFC0C220721304600F0F6FC0C22082140
:10448000304600F0F1FC0C220921304600F0ECFC33
:104490000C220A21304600F0E7FC06210420099195
:1044A000CDE90704CDE90A54CDE900040C940820B5
:1044B00002900D94CDE9035405940F9406940E9444
:1044C0001994109411941294139440021494CDE909
:1044D0001540189407A817941D901A94CDF870D021
:1044E0000EA800F01DF80121002000F009F820B00E
:1044F000BDE8F081000C02400008024000100240BC
:104500008000A0F1C0400029016802D041F0010103
:1045100001E0024A1140016070470000FEFF0F00F9
:1045200030B501688900A1F1C0410B683E4A1340D3
:10453000D0E901242243D0E903452C4322434469B6
:10454000224384692243C4692243046A2243446AA1
:104550002243846A2243C46A2243046B2243446B8D
:1045600022431A430A608168082907D1016889003B
:10457000A1F1C0410A6842F040020A60416BB1F506
:10458000801F15D1016899B14FF020414A680B682E
:1045900022F4700243F480130B600B6843F48073C1
:1045A0000B60836B214C1B8A04EB035313434B605A
:1045B000816BD1E9002342EA03128B688C891B02CC
:1045C00043EA04431A430B8A42EA03520B7D89698A
:1045D00042EA03620A4301688900A1F1C0414A60CE
:1045E000816AB1F5804F08D000686FF0704180009B
:1045F000A0F1C040C0F8041130BDC16BD1E9002367
:1046000042EA03128B680C8A1B0243EA04531A43E2
:104610000B7D896942EA036200680A438000A0F1C9
:10462000C040C0F8042130BD8000E7FF0000F0FF6B
:1046300010B504460A2812D00D2C14D002F04EFBFF
:1046400009480068C0690168204688470748016832
:1046500009B120468847BDE8104003F061BDBDE8C0
:10466000104001F0ABBC10BD542900207C29002073
:104670002DE9FF5F8346DDE90E45984691468A465F
:104680004FF0FF3601274FF4B47004F5B47405F50C
:10469000B47503E0A4F5B474A5F5B4758442F9DAF1
:1046A000002D65DD5A2C11DA002C00DA00245A2D79
:1046B00001DA284600E05A20CDE90040CDE9027633
:1046C00043464A465146584612F002FE5A3C5A3D6D
:1046D000002D4DDD5A2C14DA002C00DA00245A2D5E
:1046E00001DA284600E05A20C4F15A01C0F15A000C
:1046F0008DE8430043464A4651465846039612F019
:10470000E7FD5A3C5A3D002D32DD5A2C12DA002CBE
:1047100000DA00245A2D01DA284600E05A200DF173
:10472000040C00948CE8C10043464A465146584662
:1047300012F0CEFD5A3C5A3D002D19DD5A2C14DAE8
:10474000002C00DA00245A2D01DA284600E05A2015
:10475000C4F15A01C0F15A008DE8830043464A462D
:1047600051465846039712F0B3FD5A3C5A3D97E71D
:10477000BDE8FF9F2DE9F0430446C56887B0904629
:104780008946002003F03CF9064625B1287910B18E
:1047900046F0020001E026F0020003F031F9206942
:1047A000012558B1D4E902128DE8260003956388EB
:1047B0002288046841464846A0471EE0124F134B2A
:1047C000214638681B68427CE068984730B9E08829
:1047D000012801D0002001E03868806BA288E388BE
:1047E000A1680095CDE90410CDE9023201956388F6
:1047F00022884146484605F05BFD07B03046BDE8DB
:10480000F04303F0FDB80000542900204C2900209B
:104810001CB50024019401AC009400F0E7F81CBD25
:104820002DE9FF4F83B0814606988A46A0EB0A081F
:10483000109E00200090A2EB09043568934654EACC
:10484000080018D02046FDF77BF907464046FDF7E3
:1048500077F987420BDA2046444680464846D146DF
:1048600082465846DDF818B0069001200090002CD2
:1048700007DD204606E007B04846BDE8F04F00F0EF
:104880003BB96042A0420AD04846D9466442C8F1CA
:10489000000883464FF0FF37DDF818A000E001273D
:1048A0005148B8F1000F11D004EBD4714FEA610BFD
:1048B00001DACBF1000B4C480068807E88B3002FF2
:1048C00002DA30682044306000257BE0009900293E
:1048D000016821D0897E11B10027804615E007B01C
:1048E0005A4649465046BDE8F04F05F043BE2846BB
:1048F0006D1C19F01FFE38B9D8F8000009EB07014C
:10490000406E4268504690477F1CA742EFDD6D1E07
:10491000356007B0BDE8F08F8A7E1AB10027804667
:1049200017E019E0486E5A465146036807B04846FA
:10493000BDE8F04F184728466D1C19F0FBFD38B94B
:10494000D8F8001009EB0700496E4A6851469047B5
:104950007F1CA742EFDDDAE700250FE008FB05B07A
:1049600090FBF4F101EB0A00009951B11E4A09EBEA
:1049700005011268526E526890476D1CA542EDDD2C
:10498000C7E7194909EB05030968496E4A680146FA
:104990001846F1E708FB05B090FBF4F101EB0A00C3
:1049A000019030683844306019F0C4FD48B900986F
:1049B00090B10D4809EB05010068406E426801980E
:1049C00090476D1CA542E5DD3068002F01DA2044D8
:1049D0003060C01B30609CE7034909EB05000968A3
:1049E000496E4A680199EBE7542900202DE9FF47F9
:1049F0000F4640491646804609680C981D460A7EB7
:104A0000012A1CD0A8EB0600791B50EA01031CD038
:104A1000A2F101091BF004F900F58060824604F060
:104A2000D2FD00FB09F4504604F0D2FD00FB09F171
:104A3000002C0CDAC4F50070801240420AE00090AD
:104A4000324639464046FFF7EBFEBDE8FF8704F5E6
:104A50000074A012002904DAC1F5007189124C42D9
:104A600002E001F500718C12002804DD411C01EB0D
:104A7000D171491003E000EBD0714910401E00EBEA
:104A8000D0704210002C04DD601C00EBD070401090
:104A900003E004EBD4704010641E04EBD47308EB05
:104AA0000104ADF800403C18ADF80240A8EB020448
:104AB0005B10B21AADF80440ADF808203144FC1A7E
:104AC000EA1AADF80C102844ADF80A20ADF80E0033
:104AD0000023ADF806401A460421684600F07AF833
:104AE0003946404615F0CCF92946304615F0C8F94C
:104AF000ABE7000054290020064A13681A7E012AF9
:104B000005D0521E02EBD272521000F005B85A6E58
:104B100052681047542900202DE9F05F0646884668
:104B200040F2C32002FB00F14FF47A7091FBF0F7E2
:104B300002FB02F102EBD27001EB600B1446B118DC
:104B4000234A301B7F1C1268526E13680A46414686
:104B50009847012538E000BF05FB05F004FB040180
:104B600059451CDDBC4219DD194B06EB050AA6EBC5
:104B700005091B68AAF1010208EB04015B6E09F14B
:104B800001001B689847124BAAF10102A8EB04012F
:104B90001B6809F101005B6E1B689847641E0C4B93
:104BA0003219301B1B68924608EB05015B6E81468B
:104BB0001B689847064B5246A8EB05011B68484600
:104BC0005B6E1B6898476D1CBD42C5DDBDE8F09F5C
:104BD000542900202DE9FF4F43F6FF740F4666422B
:104BE00083B09B46814600210BE000BF09EB8100AA
:104BF000B0F90200A04200DA0446B04200DD0646E9
:104C0000491CB942F2DB67480068406900280DD0B2
:104C1000B0F906101A46A1EB0B01B14200DA0E46BC
:104C2000B0F90200801AA04200DD0446B4E0DFF8CB
:104C300078A100200546CAF8000088E0781E854269
:104C400001DA6B1C00E0002309EB850C09EB830201
:104C5000BCF90200B2F90210A04244D1A14215D120
:104C600039F92330059A39F9251003EB020C4D4A26
:104C700005981268084404EB0B01526E60451368F6
:104C800001DA62462AE00246604627E02846A4464A
:104C90004FF000087A1E0BE008B1401E00E0781EBD
:104CA00009EB8003B3F90230634504D108F1010830
:104CB0009045F1DB2346A34248D01A1B39F9250061
:104CC000A1EB040C059B92EA0C0F09D4354A184459
:104CD00004EB0B011268526E13680246984735E0E8
:104CE00011F0FCF832E0A14230D001DBA04203DD3C
:104CF000A0422BDBA14229DCE04688420ADC0346C5
:104D0000A04223DC0846A14220DBB8F900C0B2F97A
:104D1000001008E00B46A14218DCA04216DBB2F9F5
:104D200000C0B8F90010E21AA1EB0C0151430029B0
:104D3000A0EB030202DD01EB620102E0A1EB6201E4
:104D4000491CC01A91FBF0F06044C9E76D1CBD42DC
:104D5000FFF674AF0598009004EB0B000190002063
:104D60008046054613E01149B8F1000F31F915A04E
:104D700009D0009901EB0A0208440A490968496E02
:104D80000B680199984788F0010850466D1C064948
:104D900009688D42E7DB641CB4427FF748AF07B077
:104DA000BDE8F08F54290020902C00204866022096
:104DB00010B5002002F0F6FD6FF07F4002F0FDFD1F
:104DC000012002F085FE002002F090FE002002F09B
:104DD0009DFE002002F014FE0448006802F01CFE54
:104DE000BDE81040002002F045BE00005029002020
:104DF000F0B5002201274FF0030C0B6807FA02F50B
:104E00002B40AB422CD1066853000CFA03F4A643A6
:104E100006600E79D0F800E09E4046EA0E06066075
:104E20000E79012E01D0022E12D18668A64386602B
:104E30004E79D0F808E09E4046EA0E068660466845
:104E4000AE43466045688E799640B6B235434560BC
:104E5000C568A543C560CC799C40C3681C43C46049
:104E6000521C102AC9D3F0BD4B07DB0E9A40C9086B
:104E700010B500EB8100016A0F249C40A143016240
:104E8000016A1143016210BD018370472DE9F04FA3
:104E9000DFF828B191B04FF0FF35DBF80030B3F9FF
:104EA00022100691DE69B3F92490F469A189814248
:104EB00006D8E289824203D3471AD4F8008012E070
:104EC000D4E9018100296FD00A8882426CD84D88CC
:104ED000854269D3801A82B2486800EB8200B0F93B
:104EE0000070B0F90250781C5ED0307EA17C10FBBF
:104EF00001FA217CCDE90701B3F92A60304605F0BB
:104F0000B5FEC0B20E90DBF8000007FB0A81A37C5F
:104F1000826B0127CDE90412CDE90273C069089ABA
:104F2000C17E807ECDE90001DDE90603494605F03A
:104F3000BFF9681C18D046F0020005F097FEDBF8B8
:104F40000000A37C05FB0A81826BCDE90273CDE9E9
:104F50000412C069089AC17E807ECDE90001DDE9B6
:104F60000603494605F0A4F9DBF800005D46C06978
:104F7000417E007E814214D9022E12D086F00400B8
:104F800005F074FE2868C069027EC37E12FB03919F
:104F9000437E857E089A06984B4412FB050205F075
:104FA0003FFB0E9805F062FEDBF80000627C418C4E
:104FB0001144418411B0BDE8F08F00005429002055
:104FC00004480068C069C06909B1027C0A60407C7D
:104FD0007047000054290020022008807047C069F3
:104FE00082898A4202D8C2898A4210D2806880B1FE
:104FF00002888A420DD843888B420AD3406800EB6E
:105000008100A0EB8200B0F90000002801DB012044
:1050100070470020704700002DE9F043304C0346F4
:1050200087B020681946B0F92A60C069C06900F0ED
:1050300086F8002850D041680088181A01EBC00596
:105040003046AF7805F012FE814620686A68012379
:10505000816BCDE90237CDE90421C169CB7E8A7E1F
:10506000CDE900230B7EB0F924102A78B0F9220094
:1050700005F01EF92068C069417E027E91421FD969
:10508000C07E11FB00F812FB00F7022E18D001F0D1
:1050900074FC064601F03AFC02F08FFC21682A7885
:1050A000CB69B1F92200DB7E12FB0302B1F92410B7
:1050B00001EB0803394405F0B3FA304602F07DFCF9
:1050C000484605F0D3FD20686A78C369B0F922101C
:1050D0009B7E12FB0311418407B0BDE8F083000002
:1050E0005429002030B50F4C05460B462068294650
:1050F000C069C06900F023F8002812D04168008818
:1051000024682A1A0120E46900EBC200085CA47E2E
:1051100010FB04F0002B04D011F8321011FB04F145
:10512000196030BD5429002001200880704700B567
:10513000C06900F004F8002800D0012000BD06E09E
:1051400002888A4202D842888A4202D280680028B5
:10515000F6D1704770B500250F4C19E020690F4952
:10516000C5EB051600EBC60070220968001DFBF7B1
:10517000C8FB2069002140F8361000EBC60000F1A2
:105180000C018161011D0A1DC0E90F126D1C4164F3
:10519000A0688542E2DB70BDBC2C002054290020B1
:1051A00070B50E490C480860084604F0A3F80B4C93
:1051B000143CA068C0EB0010C500284600F0AEF912
:1051C0002A460021206104F080F94FF0FF30206072
:1051D000BDE8704003F00AB841CA0108D02C002095
:1051E0002DE9F043314D014687B02868B0F92A60B7
:1051F000C069C06906E002888A4202D842888A42B1
:1052000005D280680028F6D107B0BDE8F0830028F9
:10521000FAD0446801F0C8FBA778304605F026FDB7
:1052200081462868224A0123816BCDE90237CDE906
:105230000421C169CB7E8A7ECDE900230B7EB0F9C3
:1052400024102278B0F9220005F032F82868C069ED
:10525000417E027E91421CD9C07E11FB00F812FBF8
:1052600000F7022E15D001F088FB064601F04EFB38
:1052700002F0A3FB29682278B1F92200B1F92410C9
:10528000024401EB0803394405F0CAF9304602F044
:1052900094FB484605F0EAFC28686278C369B0F9D7
:1052A00022109B7E12FB03114184ADE7542900209C
:1052B000F85402200B490968CA69D16906E00B88D5
:1052C000834202D84B88834203D289680029F6D1F1
:1052D00006E029B14868917E007810FB01F0704724
:1052E00000207047542900202DE9FC479846DDE94D
:1052F0000A7691460C46054601F0F0FC10F0DAF90A
:10530000054410F0E5F90444002010F015FA09E016
:10531000CDE9007643464A462146284612F03CF93C
:1053200010F0A8F90028F3D1BDE8FC4702F0F8BE60
:1053300010B515F04BFC0448016A0448006841664A
:1053400000F10801416110BD1C2C002054290020EF
:105350002DE9F041224C05460E462068002788B909
:1053600020480068E06110B905F019FAE06100F02A
:10537000D5F8206080B31A491B48243108600846DC
:1053800003F0B8FF19480068854200DA0546E16974
:10539000731B4A1E2046934201DD6E18761EAE42F4
:1053A00001DA2E460127124C2268516E4B68836346
:1053B00001620B490F4B34310B60516602C880E823
:1053C000620011F039FB11F0BFF8054821682C305C
:1053D00048613846BDE8F081FFE70127D2E70000C9
:1053E0001C2C002080290020DDC901088429002010
:1053F000542900202D9B0108044A126892F8682065
:1054000090FBF2F091FBF2F1FFF7A2BF54290020CC
:10541000F8B50C0005460FD001F060FC204600F006
:1054200017F8060010D000F007F9224600902DB1C1
:105430002946FBF7DFF904E00020F8BD002104F065
:1054400044F8684600F062F902F06AFE3046F8BDA2
:1054500010B5040009D001F041FC204610F0DEFF39
:10546000044602F05DFE204610BD002010BD38B598
:10547000054601F033FC2846FFF7EAFF040009D097
:1054800000F0DAF82A460021009004F01EF8684681
:1054900000F03CF902F044FE204638BD024A10609C
:1054A00021F00300506070472465022010B504000D
:1054B00016D001F013FC0B48006B10F8341059B1F2
:1054C000022909D2042101EBC4014158486810F0B7
:1054D00021FD204618F07CFEBDE8104002F020BE01
:1054E00010BD000068640220002805D0034A916BBB
:1054F000016001B148609063704700006864022059
:1055000010B5044601F0EAFB2068FFF7CFFF00204A
:105510002060BDE8104002F003BE00002DE9F0411C
:10552000044616F04DFD2848E41C24F00305C16B29
:105530002D1DA94200D90D46846B13E054F8042CAC
:10554000AA420ED184B1216809B162684A606168DB
:1055500009B122680A60826BA24231D1216881635D
:105560002EE02468002CE9D18046416B80680F183A
:1055700057F8040C3E1A306838B1002018F0DCFEF1
:1055800057F8040C3E1A3068D0B97068A84217DB8F
:105590003044441B3046241D18F086FED8F808100D
:1055A000491BC8F80810D8F810102944C8F8101082
:1055B0007068401B02D0314610F0ACFC44F8045C2B
:1055C0002046BDE8F08100006864022010B5002488
:1055D00016F0F6FC0C490F2001EBC002126C1AB158
:1055E00001EBC000006C08E0401EF5D508E0416802
:1055F000A14200D90C46806810B180680028F6D11D
:10560000A4F10C0010BD000068640220002138B134
:105610000449042202EBC000096B085841680C39A8
:10562000084670476864022002484169491C41618C
:10563000704700006864022005498A69521C8A612B
:10564000096B01EBC0010A78521C0A7000F076B8B1
:10565000686402207CB506460C460846FFF7F8FE53
:10566000050020D0FEB13046FFF7D0FFA04200DA9F
:10567000044601F033FB2846FFF7DEFF009030467A
:10568000FFF7DAFF0146019022460098FBF7B2F8D7
:10569000684600F03BF801A800F038F83046FFF704
:1056A00005FF02F03DFD28467CBD000010B501F06D
:1056B00015FBFFF78BFF64220849B0F5800F04D972
:1056C00090FBF2F4C869444303E0C9694143B1FB6C
:1056D000F2F402F025FD204610BD000068640220AF
:1056E0000549102805D94A68B0EB520F02D350087B
:1056F00000E010208860704724650220024841695C
:10570000491E416170470000686402200A4902682E
:105710000B6B52F8082C03EBC2021378022B03D355
:105720008B690BB15B1E8B611178491E11700021D2
:10573000016008467047000068640220002806D017
:105740000349042202EBC000096B08580830704777
:10575000686402202DE9FC414FF000060B465FEA29
:10576000000834462BD032B111461846FFF750FEE0
:10577000060000D101244046FFF75EFF0090078835
:1057800045686846FFF7C2FFCCB9B9002846091D35
:10579000FFF760FF050015D0FFF74EFF019040F8BE
:1057A000276001A8FFF7B2FF4046FFF745FF0090D2
:1057B00045600188491C01806846FFF7A7FF204625
:1057C000BDE8FC813046FFF771FE0124F7E70820B1
:1057D000FFF74DBE7CB5050023D0FFF72DFF0090ED
:1057E0004068C0B1FFF728FF0024019005E0019850
:1057F00000EB8400FFF784FE641C00980088A04240
:10580000F5DC01A8FFF782FF0098001DFFF778FE86
:105810000099002008806846FFF778FF2846FFF7C8
:1058200045FE7CBD7CB50C46FFF706FF0090018865
:10583000A14220D94568F5B101F050FA2846FFF79A
:10584000FBFE019000EB8400FFF75AFE00990888E8
:10585000401E80B20880401E019905E001EB8402E1
:10586000526841F82420641C8442F7DD01A8FFF748
:105870004DFF02F055FC6846FFF748FF7CBD38B588
:10588000002430B1FFF7D8FE009004886846FFF787
:105890003DFF204638BD38B50D46002448B1FFF71E
:1058A000CBFE2946009000F04CF804466846FFF70E
:1058B0002DFF204638BD38B50D46002448B1FFF70E
:1058C000BBFE2946009000F04EF804466846FFF7FC
:1058D0001DFF204638BD2DE9FF4107460E461546FF
:1058E00000241046FFF7C3FD009030B33846FFF7A1
:1058F000A3FE3146019000F036F802900098FFF7C1
:105900009BFE2A4603900299FAF774FF02A8FFF75C
:10591000FDFE03A8FFF7FAFEDDE90020314600F0A6
:105920002CF818B16846FFF7EBFD03E00098FFF78D
:1059300083FE044601A8FFF7E9FE04B02046BDE857
:10594000F08138B50D4601880024A94209D9406884
:1059500038B1FFF771FE009050F825406846FFF718
:10596000D5FE204638BD10B50024FFF7EAFF10B180
:10597000FFF762FE0446204610BD38B50C460146CE
:1059800015460A880120A24210D9496800290DD085
:105990000846FFF751FE00EB840400902046FFF715
:1059A000AFFD68462560FFF7B1FE002038BD70B539
:1059B0000C46054601F0DAF9C1B223462846BDE897
:1059C00070400022AFF30080F0B52D271C68B0F1C5
:1059D000004F08D0002600280DDA651C1D602770D6
:1059E0004042012408E0651C01261D606FF0004064
:1059F0002770491E01E00024091BC9B22AB3491EC1
:105A0000C9B222E00C46491EC9B2944205D1124CDB
:105A100027781C68651C1D602770104C54F82150B5
:105A200090FBF5F4E4B20A2C11D804FB150011B96F
:105A30000EB1641CE4B20A2C02D10124491CC9B283
:105A40001D686F1C30341F602C700029DAD1196872
:105A500000200870F0BD000048290020BC0F0C0891
:105A600010B5136808290DD85C1814600022227044
:105A7000054A04E000F00F040009145D5C54491E5F
:105A8000C9B2F7D210BD0000E40F0C0810B5002811
:105A900007DD0A682B24531C0B6014700968002270
:105AA0000A7010BD10B5044601F018F9044904EB62
:105AB000840001EB8000447902F032FB204610BDE7
:105AC000206602202DE9FC5F8946044601F006F9B4
:105AD000484600F05FFF2C4E09EB8907824656F8D6
